S01D00006D6B7A5F6272616B655F7468726F74746C655F76332E7372656374
S1130000007000201104000079040000790400004D
S11300107904000079040000790400000000000065
S1130020000000000000000000000000790400004F
S1130030790400000000000079040000856B0000D2
S1130040FD2A0000072B0000112B00001B2B0000D1
S1130050252B00002F2B0000392B0000432B000020
S11300604D2B0000572B0000612B00006B2B000070
S1130070752B00007F2B0000892B0000932B0000C0
S11300809D2B00007904000079040000790400002D
S11300907904000079040000790400007904000068
S11300A07904000079040000755200007F520000BA
S11300B089520000790400007904000079040000EA
S11300C07904000079040000790400007904000038
S11300D07904000079040000790400007904000028
S11300E07904000079040000790400007904000018
S11300F07904000079040000790400007904000008
S113010079040000790400007904000079040000F7
S113011079040000790400007904000079040000E7
S113012079040000790400007904000079040000D7
S113013079040000790400007904000079040000C7
S113014079040000790400007904000079040000B7
S113015079040000790400007904000079040000A7
S11301607904000079040000790400007904000097
S11301707904000079040000C73D0000D13D00006F
S1130180DB3D0000E53D0000EF3D00007904000088
S113019079040000F93D0000033E000079040000EA
S11301A00D3E000079040000790400007904000089
S11301B0173E0000213E0000790400002B3E0000A1
S11301C07904000079040000790400007904000037
S11301D07904000079040000790400007904000027
S11301E07904000079040000790400007904000017
S11301F07904000079040000790400007904000007
S11303F0790400007904000079040000FFFFFFFF86
S1130400FFFFFFFFFFFFFFFFFFFFFFFFFE7FFFFF79
S113041072B64FF000014FF000024FF000034FF0AE
S113042000044FF000054FF000064FF00007B846F7
S1130430B946BA46BB46BC460A490B4A521A013A67
S113044005DD0020042308601944043AFBDA074858
S11304508546074880470748804762B607F084FF0F
S1130460FEE700000080FF1F0070002000700020E5
S1130470E11000001D110000FFF7FEBF81F00041F4
S113048002E000BF83F0004330B54FEA41044FEA75
S1130490430594EA050F08BF90EA020F1FBF54EA10
S11304A0000C55EA020C7FEA645C7FEA655C00F0AC
S11304B0E2804FEA5454D4EB5555B8BF6D420CDD7D
S11304C02C4480EA020281EA030382EA000083EA00
S11304D0010180EA020281EA0303362D88BF30BDA0
S11304E011F0004F4FEA01314FF4801C4CEA1131F6
S11304F002D0404261EB410113F0004F4FEA033355
S11305004CEA133302D0524263EB430394EA050FDF
S113051000F0A780A4F10104D5F1200E0DDB02FA4E
S11305200EFC22FA05F2801841F1000103FA0EF2E2
S1130530801843FA05F359410EE0A5F120050EF1A8
S1130540200E012A03FA0EFC28BF4CF0020C43FAD9
S113055005F3C01851EBE37101F0004507D54FF0E6
S1130560000EDCF1000C7EEB00006EEB0101B1F536
S1130570801F1BD3B1F5001F0CD349085FEA30007C
S11305804FEA3C0C04F101044FEA445212F5800F87
S113059080F09A80BCF1004F08BF5FEA500C50F124
S11305A0000041EB045141EA050130BD5FEA4C0C07
S11305B0404141EB010111F4801FA4F10104E9D190
S11305C091F0000F04BF01460020B1FA81F308BF87
S11305D02033A3F10B03B3F120020CDA0C3208DD53
S11305E002F1140CC2F10C0201FA0CF021FA02F12E
S11305F00CE002F11402D8BFC2F1200C01FA02F19E
S113060020FA0CFCDCBF41EA0C019040E41AA2BFC2
S113061001EB0451294330BD6FEA04041F3C1CDA8A
S11306200C340EDC04F11404C4F1200220FA04F0AA
S113063001FA02F340EA030021FA04F345EA030154
S113064030BDC4F10C04C4F1200220FA02F001FA16
S113065004F340EA0300294630BD21FA04F0294698
S113066030BD94F0000F83F4801306BF81F4801131
S11306700134013D4EE77FEA645C18BF7FEA655CA4
S113068029D094EA050F08BF90EA020F05D054EA76
S1130690000C04BF1946104630BD91EA030F1EBF7B
S11306A00021002030BD5FEA545C05D1400049417F
S11306B028BF41F0004130BD14F580043CBF01F572
S11306C0801130BD01F0004545F0FE4141F4700158
S11306D04FF0000030BD7FEA645C1ABF1946104633
S11306E07FEA655C1CBF0B46024650EA013406BF34
S11306F052EA033591EA030F41F4002130BD00BFF3
S113070090F0000F04BF0021704730B54FF48064AF
S113071004F132044FF000054FF0000150E700BF30
S113072090F0000F04BF0021704730B54FF480648F
S113073004F1320410F0004548BF40424FF000017C
S11307403EE700BF42004FEAE2014FEA31014FEABF
S113075002701FBF12F07F4393F07F4F81F060510E
S1130760704732F07F4208BF704793F07F4F04BF59
S113077041F40021704730B54FF4607401F0004536
S113078021F000411CE700BF50EA010208BF704796
S113079030B54FF000050AE050EA010208BF704787
S11307A030B511F0004502D5404261EB41014FF4F0
S11307B0806404F132045FEA915C3FF4D8AE4FF0F8
S11307C003025FEADC0C18BF03325FEADC0C18BFDB
S11307D0033202EBDC02C2F1200300FA03FC20FA2C
S11307E002F001FA03FE40EA0E0021FA02F1144479
S11307F0BDE600BF70B54FF0FF0C4CF4E06C1CEA92
S113080011541DBF1CEA135594EA0C0F95EA0C0F02
S113081000F0DEF82C4481EA030621EA4C5123EA75
S11308204C5350EA013518BF52EA033541F48011A4
S113083043F4801338D0A0FB02CE4FF00005E1FB57
S113084002E506F00042E0FB03E54FF00006E1FBA1
S113085003569CF0000F18BF4EF0010EA4F1FF04E4
S1130860B6F5007F64F5407404D25FEA4E0E6D4124
S113087046EB060642EAC62141EA55514FEAC52035
S113088040EA5E504FEACE2EB4F1FD0C88BFBCF5B1
S1130890E06F1ED8BEF1004F08BF5FEA500E50F162
S11308A0000041EB045170BD06F0004646EA010128
S11308B040EA020081EA0301B4EB5C04C2BFD4EB5A
S11308C00C0541EA045170BD41F480114FF0000E53
S11308D0013C00F3AB8014F1360FDEBF002001F0C1
S11308E0004170BDC4F10004203C35DA0C341BDC3B
S11308F004F11404C4F1200500FA05F320FA04F00D
S113090001FA05F240EA020001F0004221F0004140
S113091010EBD37021FA04F642EB06015EEA430EB3
S113092008BF20EAD37070BDC4F10C04C4F12005E3
S113093000FA04F320FA05F001FA04F240EA020096
S113094001F0004110EBD37041F100015EEA430E67
S113095008BF20EAD37070BDC4F1200500FA05F287
S11309604EEA020E20FA04F301FA05F243EA020306
S113097021FA04F001F0004121FA04F220EA020015
S113098000EBD3705EEA430E08BF20EAD37070BD5B
S113099094F0000F0FD101F00046400041EB01013B
S11309A011F4801F08BF013CF7D041EA060195F01D
S11309B0000F18BF704703F00046520043EB0303D7
S11309C013F4801F08BF013DF7D043EA06037047C4
S11309D094EA0C0F0CEA135518BF95EA0C0F0CD0CF
S11309E050EA410618BF52EA4306D1D181EA030115
S11309F001F000414FF0000070BD50EA410606BF0F
S1130A001046194652EA430619D094EA0C0F02D153
S1130A1050EA013613D195EA0C0F05D152EA033698
S1130A201CBF104619460AD181EA030101F00041B6
S1130A3041F0FE4141F470014FF0000070BD41F0FF
S1130A40FE4141F4780170BD70B54FF0FF0C4CF4D9
S1130A50E06C1CEA11541DBF1CEA135594EA0C0FF8
S1130A6095EA0C0F00F0A7F8A4EB050481EA030E45
S1130A7052EA03354FEA013100F088804FEA03332C
S1130A804FF0805545EA131343EA12634FEA0222FA
S1130A9045EA111545EA10654FEA00260EF00041BB
S1130AA09D4208BF964244F1FD0404F5407402D20D
S1130AB05B084FEA3202B61A65EB03055B084FEA9E
S1130AC032024FF480104FF4002CB6EB020E75EB9B
S1130AD0030E22BFB61A754640EA0C005B084FEAC3
S1130AE03202B6EB020E75EB030E22BFB61A754640
S1130AF040EA5C005B084FEA3202B6EB020E75EB8B
S1130B00030E22BFB61A754640EA9C005B084FEA02
S1130B103202B6EB020E75EB030E22BFB61A75460F
S1130B2040EADC0055EA060E18D04FEA051545EAFE
S1130B3016754FEA06164FEAC30343EA52734FEAA7
S1130B40C2025FEA1C1CC0D111F4801F0BD141EA20
S1130B5000014FF000004FF0004CB6E711F4801F85
S1130B6004BF01430020B4F1FD0C88BFBCF5E06F65
S1130B703FF6AFAEB5EB030C04BFB6EB020C5FEA75
S1130B80500C50F1000041EB045170BD0EF0004ECA
S1130B904EEA113114EB5C04C2BFD4EB0C0541EAFC
S1130BA0045170BD41F480114FF0000E013C90E6F9
S1130BB045EA060E8DE60CEA135594EA0C0F08BFBD
S1130BC095EA0C0F3FF43BAF94EA0C0F0AD150EABC
S1130BD001347FF434AF95EA0C0F7FF425AF10464F
S1130BE019462CE795EA0C0F06D152EA03353FF477
S1130BF0FDAE1046194622E750EA410618BF52EAF4
S1130C0043067FF4C5AE50EA41047FF40DAF52EAC7
S1130C1043057FF4EBAE12E74FF0FF3C06E000BF64
S1130C204FF0010C02E000BF4FF0010C4DF804CD71
S1130C304FEA410C7FEA6C5C4FEA430C18BF7FEA31
S1130C406C5C1BD001B050EA410C0CBF52EA430C5F
S1130C5091EA030F02BF90EA020F0020704710F1DF
S1130C60000F91EA030F58BF994208BF90422CBF6E
S1130C70D8176FEAE37040F0010070474FEA410C67
S1130C807FEA6C5C02D150EA013C07D14FEA430C85
S1130C907FEA6C5CD6D152EA033CD3D05DF8040BF6
S1130CA0704700BF8446104662468C461946634628
S1130CB000E000BF01B5FFF7B7FF002848BF10F1FF
S1130CC0000F01BD4DF808EDFFF7F4FF0CBF012044
S1130CD000205DF808FB00BF4DF808EDFFF7EAFFC0
S1130CE034BF012000205DF808FB00BF4DF808ED7B
S1130CF0FFF7E0FF94BF012000205DF808FB00BF70
S1130D004DF808EDFFF7CEFF94BF012000205DF8F9
S1130D1008FB00BF4DF808EDFFF7C4FF34BF012006
S1130D2000205DF808FB00BF4FEA4102B2F1E04346
S1130D3024BFB3F5001CDCF1FE5C0DD901F0004CBE
S1130D404FEAC0024CEA5070B2F1004F40EB83000E
S1130D5008BF20F00100704711F0804F21D113F13A
S1130D603872BCBF01F00040704741F480114FEA73
S1130D705252C2F11802C2F1200C10FA0CF320FAFC
S1130D8002F018BF40F001004FEAC1234FEAD32319
S1130D9003FA0CFC40EA0C0023FA02F34FEA430383
S1130DA0CCE77FEA625307D150EA01331EBF4FF00C
S1130DB0FE4040F44000704701F0004040F0FE4027
S1130DC040F40000704700BF53B94AB9002908BF76
S1130DD000281CBF4FF0FF314FF0FF3000F07EB908
S1130DE0ADF1080C6DE904CE00F006F8DDF804E07E
S1130DF0DDE9022304B070472DE9F047089D04465D
S1130E008E46002B4ED18A4294466DD9B2FA82F7AF
S1130E1057B1C7F1200EB94020FA0EFE02FA07FCC2
S1130E204EEA010E00FA07F44FEA1C49210CBEFBFE
S1130E30F9F61FFA8CF809FB16EE41EA0E4106FB9F
S1130E4008F38B420AD91CEB010106F1FF3280F052
S1130E5027818B4240F22481023E6144C91AA4B224
S1130E60B1FBF9F009FB101144EA014400FB08F856
S1130E70A0450AD91CEB040400F1FF3380F00E8175
S1130E80A04540F20B810238644440EA0640A4EBDA
S1130E90080400267DB1FC4000232C606B603146C1
S1130EA0BDE8F0878B4209D9002D00F0148100269B
S1130EB085E8030030463146BDE8F087B3FA83F68F
S1130EC0002E40F090808B4202D3824200F2FD80DB
S1130ED0841A61EB030101208E46002DEBD085E8D6
S1130EE010403146BDE8F0871AB94FF0010CBCFB45
S1130EF0F2FCBCFA8CF7A7BBA1EB0C034FEA1C4233
S1130F001FFA8CF80126B3FBF2FE210C02FB1E3300
S1130F1041EA034108FB0EF38B4208D91CEB0101A3
S1130F200EF1FF3002D28B4200F2D1808646C91AFC
S1130F30A3B2B1FBF2F002FB101143EA014408FB37
S1130F4000F8A04508D91CEB040400F1FF3302D2D9
S1130F50A04500F2B7801846A4EB080440EA0E400E
S1130F6098E7C7F1200301FA07F40CFA07FC20FA0A
S1130F7003FED9404FEA1C424EEA040EB1FBF2F6DE
S1130F804FEA1E4302FB16111FFA8CF843EA014391
S1130F9006FB08F1994200FA07F40AD91CEB030393
S1130FA006F1FF3080F08C80994240F28980023E45
S1130FB063445B1A1FFA8EF1B3FBF2F002FB1033A9
S1130FC041EA034100FB08F38B4208D91CEB010101
S1130FD000F1FF3E70D28B426ED902386144CB1AC5
S1130FE040EA06468FE7C6F1200722FA07F8B34025
S1130FF001FA06F448EA030320FA07FC4FEA134E09
S1131000F9404CEA040CB1FBFEF94FEA1C440EFB18
S113101019111FFA83F844EA014109FB08F48C42D0
S113102002FA06F200FA06FA08D9591809F1FF3053
S113103044D28C4242D9A9F102091944091B1FFA6E
S11310408CFCB1FBFEF00EFB10114CEA014400FBDA
S113105008F8A04507D91C1900F1FF312AD2A04590
S113106028D902381C4440EA0940A4EB0804A0FB38
S113107002894C45C446494616D313D055B1BAEB40
S11310800C0364EB010404FA07F7F3401F43F44034
S11310902F606C6000263146BDE8F0871846F4E600
S11310A01646DBE6C245E9D2B8EB020C69EB030154
S11310B00138E3E70846D6E7704690E78146BDE786
S11310C0064676E70238644446E7304605E7AEF163
S11310D0020E61442BE72E462846ECE6704700BF1B
S11310E04FF0E023D3F8882D42F47002C3F8882D22
S11310F0D3F8342F22F08042C3F8342F054B064A2C
S11311005A605A6842F220121A604FF6FF729A60CF
S1131110704700BF0020054020C528D9264B274A28
S11311209A4208D013462448254A13F8011B02F8B2
S1131130011B9842F9D1234B234A9A4208D0134603
S11311402048224A13F8011B02F8011B8342F9D1FB
S11311501F4B204A9A4206D0134600211C4A03F82A
S1131160011B9342FBD11C4B1C4A9A4208D01346E4
S113117019481B4A13F8011B02F8011B8342F9D1D9
S1131180184B194A9A4212D010B4184CA40808D02B
S11311901946002351F8040B42F8040B0133A3420F
S11311A0F8D1134B104A1A605DF8044B7047104B8A
S11311B00C4A1A60704700BF408E0000408800004F
S11311C00084FF1F408E0000408E0000008AFF1F35
S11311D0F806002000000020408E0000408E000031
S11311E000000020000000000080FF1F0004000039
S11311F008ED00E0074B5B69DBB2042B06D0802BC3
S113120006D0012B0CBF0120042070470220704738
S11312100320704700E00740044BD3F8003113F07B
S1131220807F1ABF024B18680020704700400640B8
S11312304004002010B584B00B46002938D0444A3D
S1131240D2F8002112F0007F7DD1414AD2F800117A
S113125021F40001C2F800114FF08061C2F80011BE
S113126000213C4A1160002870D05A7A120202F41C
S1131270E062197A01F007010A433548C0F80421F5
S1131280DA79120102F030029979C90001F00801FB
S11312900A435979890001F004010A43C0F808217E
S11312A01A79012A2FD0CAB1022A38D000BEFEE72B
S11312B000238DF804308DF80C3001228DF80820BD
S11312C08DF809208DF805208DF8063002238DF85D
S11312D0073004AB204A43F8102DB0E71A7B002AEC
S11312E014BF4FF40002002242F001021849C1F871
S11312F000211A68174B1A60184CFFF78DFFE8B9E4
S1131300D4B1013CF9E71A7B002A14BF4FF4000260
S1131310002242F001120E49C1F80021E9E71A7BCC
S1131320002A14BF4FF403024FF4403242F001028A
S11313300749C1F80021DCE7032005E0002C14BFB5
S11313400020032000E0022004B010BD0020FBE7D1
S1131350004006404004002000127A0088E7300074
S1131360084BD3F8003213F0807F09D0054BD3F833
S1131370083203F00103002B034808BF0020704724
S1131380002070470040064000127A0010B582B079
S11313900B46002938D02D4AD2F8002212F0007FE3
S11313A04FD12A4AD2F8001221F40001C2F80012E7
S11313B00021C2F80012002846D09A78120202F4E2
S11313C0E062597801F007010A432049C1F8042278
S11313D01A7802F00102C1F8082259799A791B7926
S11313E0002B14BF03230123002914BF042100216F
S11313F00B43002A14BF4FF4000200221343134A84
S1131400C2F80032642410E000238DF80430012275
S11314108DF805208DF806308DF801208DF8022016
S113142002AB03F8082DB6E7013CFFF799FF18B9A2
S1131430002CF9D1032005E0002C14BF0020032068
S113144000E0022002B010BD0020FBE7004006408F
S1131450054BD3F8003313F0807F1DBF024BD3F844
S1131460083302480020704700400640006CDC024C
S113147010B582B00B46002932D0294AD2F8002395
S113148012F0007F47D1264AD2F8001321F400015C
S1131490C2F800134FF08061C2F8001300283DD059
S11314A09A78120202F4E062597801F007010A43C3
S11314B01B49C1F804231A7802F00302C1F8082377
S11314C09A795B79002B14BF01230923002A14BFE6
S11314D04FF4000200221343C1F8003314240EE039
S11314E001238DF8053000228DF806208DF8013097
S11314F08DF8023002AB03F8082DBEE7013CFFF77C
S1131500A7FF18B9002CF9D1032005E0002C14BF63
S11315100020032000E0022002B010BD0020FBE701
S11315200040064008B50F4BD3F8003613F0807F17
S113153002D10023184608BDFFF76EFE03460028BB
S1131540F8D00849D1F80826C2F302220132B0FBD0
S1131550F2F3D1F80826C2F30442103203FB02F37B
S11315605B08E7E70040064010B584B00C4689B933
S113157000238DF804308DF80B3001228DF80820FB
S11315808DF809208DF8053007228DF806208DF896
S1131590073001AC3D4BD3F8003613F0007F71D116
S11315A03A4BD3F8002622F40002C3F800264FF089
S11315B08062C3F80026002866D0FFF72DFE03469C
S11315C008B900BEFEE760780130B3FBF0F0A0F587
S11315D0F400A0F590502E4B984201D900BEFEE7CE
S11315E063791B0203F4E063227902F007021343D8
S11315F02649C1F8043663781B0203F4E063A27839
S1131600120402F4F8121343C1F808362378012BAC
S113161018D01BB1022B21D000BEFEE7E379002BCA
S113162014BF4FF40003002343F00103174AC2F828
S113163000364FF47A74FFF775FFF0B9DCB9032074
S113164004B010BDE379002B14BF4FF40003002352
S113165043F001130D4AC2F80036EAE7E379002BA0
S113166014BF4FF403034FF4403343F00103074A1C
S1131670C2F80036DDE7013CDDE7002C14BF002092
S11316800320DDE70220DBE70020D9E70040064025
S113169000366E012DE9F84391F802904E780D78EA
S11316A00746003018BF012008B900BEFEE7804697
S11316B00C46CB78013B052B52D8DFE803F00348F6
S11316C04B51514EFFF7A8FD09F1010206FB02261A
S11316D005FB02250309022F44D0032F78D0012FE4
S11316E040F0B580E1780C2000FB01F0664F3858DB
S11316F0000902FB00F2934200F2AB800C2202FBD1
S113170001725268120906FB02F6B34200F2A48089
S11317100C2202FB01729268120905FB02F5AB422E
S113172000F29D80A3781B0403F47023090601F0E2
S113173070610B43227802F00F02134362781201A6
S1131740D2B21343514A53610020BDE8F883FFF736
S113175007FEB9E7FFF77CFEB6E7FFF7E3FEB3E762
S11317600020B1E7E178022901D000BEFEE70C2099
S113177000FB01F0464F3858000902FB00F2934287
S113178070D80C2202FB01725268120906FB02F6A1
S1131790B3426AD80C2202FB01729268120905FB5B
S11317A002F5AB4264D8A3781B0403F47023090642
S11317B001F070610B43227802F00F021343627848
S11317C01201D2B21343314A93610020BDE8F88379
S11317D0E178032905D0062914BF4FF000084FF023
S11317E00108B8F1000F01D100BEFEE70C2000FB98
S11317F001F0284F3858000902FB00F293423AD80E
S11318000C2202FB01725268120906FB02F6B34273
S113181034D80C2202FB01729268120905FB02F50E
S1131820AB422ED8A3781B0403F47023090601F0FD
S113183070610B43227802F00F02134362781201A5
S1131840D2B21343114AD3610020BDE8F88300BE2D
S1131850FEE70120BDE8F8830120BDE8F8830120FC
S1131860BDE8F8830120BDE8F8830120BDE8F883D2
S11318700120BDE8F8830120BDE8F8830120BDE81C
S1131880F8830120BDE8F8839485000000400640F9
S1131890E88500004085000008B900BEFEE710B5E9
S11318A00446C378FF2B01D100BEFEE7FFF7A2FC7C
S11318B0042801D100BEFEE72146FFF7EBFE0346F4
S11318C058B9E4780A220848013A0169C1F303616E
S11318D08C4204D0002AF7D10323184610BD002AF5
S11318E008BF0323F9E700BF00400640022801D9DE
S11318F000BEFEE710B504461B4B1B69C3F303632C
S1131900013B052B1DD8DFE803F00313161C1C193B
S1131910FFF782FC144B1B69C3F303430133B0FB91
S1131920F3F0012C0FD0ECB1022C14D0002010BD28
S1131930FFF716FDEEE7FFF78BFDEBE7FFF7F2FD90
S1131940E8E70020E6E7084B1B69C3F30313013300
S1131950B0FBF3F010BD044B1B6903F00F0301331C
S1131960B0FBF3F010BD00BF0040064008B50F4BBC
S11319701B6AC3F30363062B15D8DFE803F00408DE
S11319800B0E141411000220FFF7B0FF08BDFFF77F
S113199043FC08BDFFF7E4FC08BDFFF759FD08BD93
S11319A0FFF7C0FD08BD002008BD00BF0040064091
S11319B008B519B101292FD000BEFEE70438032869
S11319C028D8DFE800F00F02171FFFF741FD274B6F
S11319D0D3F8043303F0070313B1013B20FA03F3F4
S11319E0184608BDFFF7BCFC204BD3F8043203F0C3
S11319F00703F1E7FFF710FC1C4BD3F8043103F0A5
S1131A000703E9E7FFF78EFD184BD3F8043603F01C
S1131A100703E1E700BEFEE70438032823D8DFE824
S1131A2000F00A02121AFFF713FD104BD3F8043327
S1131A30C3F30223D0E7FFF793FC0C4BD3F8043233
S1131A40C3F30223C8E7FFF7E7FB084BD3F80431DD
S1131A50C3F30223C0E7FFF765FD044BD3F8043654
S1131A60C3F30223B8E700BEFEE700BF0040064010
S1131A7008B5114B1B69C3F30113032B19D8DFE815
S1131A8003F00207101300210620FFF791FF08BDA1
S1131A90094B186900F00200002818BF4FF4FA40FF
S1131AA008BD064B186808BD00210520FFF780FF1C
S1131AB008BD002008BD00BF00800440440400208D
S1131AC038B51C4B33F810309B0003F1804303F509
S1131AD0CA231D68C5F3C0051C6804F00704AC42A2
S1131AE025D31868C0F3807010B31B68C3F3026376
S1131AF0013B052B19D8DFE803F0030C1018181468
S1131B000620FFF755FF0134B0FBF4F005FB00009D
S1131B1038BD0420FFF74CFFF5E70520FFF748FF29
S1131B20F1E70720FFF744FFEDE70020EBE7002093
S1131B3038BD00BFA0840000114B1B69C3F38103AF
S1131B40032B17D8DFE803F01802040D00207047B8
S1131B500B4B186900F00200002818BF4FF4FA403C
S1131B607047074B186900F00200002818BF4FF4B3
S1131B70FA40704700BEFEE74FF4FA30704700BFEA
S1131B800080044008B5244B5B6813F4006F40D018
S1131B90214B5B68C3F303130E2B09D8DFE803F072
S1131BA00A080D081208171C20252F0829082C00E4
S1131BB0002026E0FFF7DAFE23E001210620FFF7EC
S1131BC0F7FE1EE001210420FFF7F2FE19E00121D7
S1131BD00520FFF7EDFE14E00020FFF787FE10E07C
S1131BE001210720FFF7E4FE0BE00120FFF77EFE52
S1131BF007E0FFF7A1FF04E0FFF73AFF01E04FF42D
S1131C00FA30054B5B68C3F302230133B0FBF3F0F6
S1131C1008BD002008BD00BF00800440F0B5A1B09D
S1131C200446FFF7E7FA012801D000BEFEE72CB115
S1131C302646002C40F06A8100BEFEE701238DF8A1
S1131C400B3000228DF80C208DF80D308DF80E200D
S1131C508DF808308DF809308DF80A308DF816307B
S1131C608DF814308DF815208DF80F208DF8103074
S1131C708DF811308DF838300D928DF82530B84933
S1131C8006918DF81C208DF824208DF81D308DF8D8
S1131C901E2002208DF81F008DF820308DF8213091
S1131CA08DF830308DF828208DF82F208DF82920DC
S1131CB00C218DF82A108DF82B208DF82C308DF8FE
S1131CC02D308DF83D3003218DF83C108DF84B30CC
S1131CD08DF841108DF840208DF83F308DF83E305E
S1131CE08DF845008DF844308DF843208DF842106E
S1131CF006208DF849008DF848208DF847308DF87E
S1131D00461098491E9120211D918DF84C308DF874
S1131D104D208DF84E208DF84F208DF850308DF8E1
S1131D2054308DF853308DF852208DF851208DF8B1
S1131D3068308DF869308DF86A308DF86B308DF825
S1131D406C308DF86D308DF873308DF858301792F3
S1131D50189219928DF86E308DF86F308DF87020CE
S1131D608DF871208DF872208DF87C308DF87D30DF
S1131D708DF87E2002AE34467B4B1B69C3F30363AC
S1131D80032B1CD0FFF764FB38B900210120FFF7B7
S1131D906FFB0546002840F0B68003238DF807301A
S1131DA000228DF8062001228DF8052020A800F8D5
S1131DB07C3DFFF771FD0546002840F0A4803146C4
S1131DC0E078FFF7E3FA054668B904F11001607F93
S1131DD0FFF730FA054630B904F1200194F82800E1
S1131DE0FFF7C2FB0546FFF705FA022800F09880CA
S1131DF0032800F09880012840F0988004F136060A
S1131E00002D53D1F378032B40F0928094F82830BE
S1131E10002B00F0B78106238DF8073002238DF8DC
S1131E20063001238DF8053020A800F87C3DFFF72B
S1131E3033FD0546637F7BB1012820D101238DF852
S1131E40073000228DF806208DF8053020A800F810
S1131E507C3DFFF721FD0546E37883B1012D0ED1CA
S1131E6002238DF8073000238DF806308DF80530F5
S1131E7020A8012300F87C3DFFF70EFD0546ADB90F
S1131E80E11DA07BFFF7F4FA054678B9F3788DF8E5
S1131E900730B3788DF8063073788DF805303378D1
S1131EA020A800F87C3DFFF7F7FC05465DBB94F8DD
S1131EB0303013B1E26A2D4B1A6094F8353053B1C7
S1131EC029490A6A22F0706294F834301B0603F040
S1131ED0706313430B6294F84330D3B104F13601B9
S1131EE00120FFF7D7FB054668B904F13A01022047
S1131EF0FFF7D0FB054630B904F13E010320FFF79C
S1131F00C9FB054628B1284621B0F0BD002C7FF45A
S1131F1033AF04F16C0314F16C0F29D100BEFEE75A
S1131F2004F13A066CE704F13E0669E700BEFEE7F9
S1131F308DF80730B3788DF8063073788DF8053056
S1131F40337820A800F87C3DFFF7A6FC054600285E
S1131F50ACD1E11DA07BFFF78BFA0546A6E700BFD5
S1131F6000127A009088FF1F0040064044040020BD
S1131F70002B35D0236F002B32D0E36E83B30022C5
S1131F808548864D02EB8201236F5B5C30F8133089
S1131F909B0003F1804303F5CA231E6826F08046A4
S1131FA01E60236F5F185E5CBB781B0603F0E06362
S1131FB0F978C90001F008010B43397901F00701F0
S1131FC00B437978002914BF4FF0804100210B4363
S1131FD030F8161045F821300132E36E9A42D1D31D
S1131FE014F1440F01D100BEFEE794F84430C3B1AC
S1131FF094F8463094F847206949496821F47F6190
S113200094F84500002814BF4FF4006000201B0121
S1132010DBB2120202F4E06213430B430343604A4F
S1132020536094F84830DBB194F84A3094F849206E
S11320305B49096921F03F0194F84C00014394F88D
S11320404B00002814BF022000209B0003F00C0367
S11320500B43120102F0300213430343504A13614D
S113206094F86030002B37D04D4B196C21F00101EE
S113207094F861200A431A641B6C23F0020394F859
S11320806220002A14BF022200221343444A13642C
S1132090136C23F0040394F86320002A14BF042271
S11320A0002213433E4A1364136C23F0080394F88C
S11320B06420002A14BF082200221343384A136400
S11320C0136C23F0100394F86520002A14BF102227
S11320D000221343324A136494F8503033B1314B25
S11320E0626D1A60A26D5A60E26D9A6094F866306F
S11320F0EBB12B4A936E00209066516821F4805115
S113210094F868301B0303F480530B4353609066C8
S113211094F867305BB194F869305B0003F00E0308
S113212094F86A2042F0805213431D4A936614F1D6
S1132130740F01D100BEFEE794F8743003B31A495A
S11321408B7803F07F0394F8752082F0010243EA50
S1132150C213DBB28B7094F97630002BBCBF2033F2
S11321605BB2DAB2202A01D900BEFEE70E490A7931
S113217003F01F0302F0E00213430B710025C2E6D3
S11321800025C0E6637F002B7FF458AEE378002B74
S11321907FF466AE012572E6A0840000005006407C
S11321A0008004404804002000D0074070B5054674
S11321B00C46112807D9232873D94D2840F23A81B7
S11321C00423184670BD112868D8DFE800F009110F
S11321D0161B1F23272B2F33373D43494F555B6174
S11321E00020FFF783FB0023002CEAD02060E8E7FF
S11321F00120FFF77BFB0023F6E70220FFF776FBC5
S11322000023F1E7FFF7BEFC0023EDE7FFF7A8F892
S11322100023E9E7FFF71CF90023E5E7FEF7FCFFDD
S11322200023E1E7FFF77EF90023DDE7A94B1868F7
S11322300023D9E7FFF79AFB0023D5E70021042008
S1132240FFF7B6FB0023CFE701210420FFF7B0FB23
S11322500023C9E700210520FFF7AAFB0023C3E7F9
S113226001210520FFF7A4FB0023BDE70021062080
S1132270FFF79EFB0023B7E701210620FFF798FB39
S11322800023B1E700210720FFF792FB0023ABE70F
S113229001210720FFF78CFB0023A5E7002004237E
S11322A0A2E7A0F115050E2D00F29580DFE805F0F8
S11322B008141F2A343C404B566169727B838B009F
S11322C0854BDB68C3F30163022B00F28780834AEA
S11322D052F82300002322E07F4BDB68C3F38163C1
S11322E0022B7ED87D4A52F82300002317E07A4B54
S11322F0DB68C3F30173022B76D8784A52F82300C3
S113230000230CE0744BDB689B0F022B6FD8734ADD
S113231052F82300002302E0FFF734FC0023002CD2
S11323203FF44FAF20604CE7FFF7A2FB0023F6E732
S11323306B4B9B78DB0902D000200346EFE7FFF7E5
S1132340FBFB0023EBE7664B9B78DB0952D1624B26
S1132350186910F0010050D10023E0E7604B9B782E
S1132360DB094ED15C4B186910F002004CD10023FC
S1132370D5E75B4B9B78DB094AD14FF4FA30002355
S1132380CDE7554B186CC0F30010002843D14FF42F
S11323908073C4E7504B186CC0F3C00000283DD1D3
S11323A04FF48073BBE74C4B186CC0F38000C0BB88
S11323B04FF48073B3E7484B186CC0F3400098BBEC
S11323C04FF48073ABE7444B186C10F001002ED12E
S11323D04FF48073A3E700200423A0E70020034602
S11323E09DE7002003469AE70020034697E7002074
S11323F0034694E70020034691E74FF47A700023E4
S11324008DE7002003468AE74FF4FA40002386E76D
S11324100020034683E70020034680E700200346AC
S11324207DE7002003467AE70020034677E7002093
S1132430034674E7242806D804230020002C3FF424
S1132440C0AE2060BDE6A0F13303DBB21A2B07D87F
S1132450244A22FA03F313F0010F18BF0423ECD12A
S1132460214B33F81520214B53F8223013F0804FC1
S113247051D01F4B5E5D16F0200F07D116F0400FB0
S11324800ED116F0800F14D100BEFEE70120FFF735
S11324902DFA50B116F0180F11D100200346CDE7E4
S11324A00020FFF723FA0028F4D100204FF48073B2
S11324B0C4E70220FFF71AFA0028F6D0EAE716F07C
S11324C0080F17D116F0100F1BD100204FF48073A2
S11324D0B4E700BF44040020008004404804002006
S11324E000D0074041210004A084000000500640B1
S11324F03C86000000212846FFF7E2FA16F0100F90
S113250003D001212846FFF7DBFA002814BF00237B
S11325104FF4807392E74FF480738EE708B5FFF7AA
S113252045FE08BD00F00F0001230BB900BEFEE715
S1132530034A10770BB900BEFEE7014BD87770470A
S1132540008000400F2801D900BEFEE710B4084BFC
S11325501B6853F820400CB900BEFEE753F8204036
S1132560616053F820309A6000205DF8044B704796
S11325702000002010B5064B1B6853F82040FFF7DD
S1132580D1FF24B1636813B1217BA068984710BDC3
S11325902000002070B5054600F00F0600223146E9
S11325A00A4800F0E9F90A4B1B6853F825405CB16E
S11325B02846FFF7B7FF054B9E7701232373636813
S11325C013B1217BA068984770BD00BF0080004014
S11325D0200000202DE9F04F85B09DF838700F28B9
S11325E001D900BEFEE79E466D4C24680CB900BEBE
S11325F0FEE754F82040003418BF012425460CB9E6
S113260000BEFEE7052F04D8DFE807F00404040346
S1132610040400250DB900BEFEE700F00F050124F7
S1132620BC405FFA84FC0F9EB6FBFCF60F9B0CFBD0
S11326301636002E14BF4FF0010B4FF0000B40F084
S1132640AA80CDF80CE002928A468146554E29466E
S1132650304600F096F9336823F080033360012696
S11326600EB900BEFEE76B0103F1804303F5004899
S113267003F51043029A1A600EB900BEFEE74948FA
S113268000EB451241F210030399D15001970097D2
S113269000231A46294600F099F9BAF1030F18D815
S11326A0DFE80AF002263C510EB900BEFEE7002224
S11326B041F2040328F8032062B20EB900BEFEE71B
S11326C092B26B0103F1804303F5004341F214011C
S11326D05A52344C0F9A2946204600F093F90122AD
S11326E02946204600F0C0F9002E41D100BEFEE785
S11326F063B20EB900BEFEE79BB241F2040228F8B1
S113270002300EB900BEFEE76B0103F1804303F50E
S11327100043002141F214029952DAE763B20EB980
S113272000BEFEE79BB241F2040228F802300EB963
S113273000BEFEE76A0102F1804202F5004241F266
S113274014015352C5E70EB900BEFEE7002241F260
S1132750040328F803200EB900BEFEE76B0103F161
S1132760804303F50043002141F214029952B0E77B
S11327706B0103F1804303F5004341F21C015A5AF3
S113278012B242F0020292B25A52054B1B6853F83D
S1132790293000221A73584605B0BDE8F08F00BFF7
S11327A020000020008000400F2801D900BEFEE771
S11327B030B583B0194C24680CB900BEFEE700F0B4
S11327C00F04079D01959DF818500095FFF702FF2F
S11327D00546F8B9089A2146114800F045F9630105
S11327E003F1804303F5004341F21C029B5A23F09A
S11327F008031B041B0C9DF82420002A14BF082284
S113280000221A43630103F1804303F5004341F2BC
S11328101C015A52284603B030BD00BF20000020DE
S1132820008000400F2801D900BEFEE708B5094B1F
S11328301B680BB900BEFEE753F820300BB900BE8D
S1132840FEE7012200F00F01034800F095F8002094
S113285008BD00BF20000020008000400F2801D9DF
S113286000BEFEE708B5094B1B680BB900BEFEE7C6
S113287053F820300BB900BEFEE7002200F00F0130
S1132880034800F079F8002008BD00BF20000020B4
S1132890008000400F2801D900BEFEE7084B1B68EA
S11328A00BB900BEFEE753F820300BB900BEFEE7BB
S11328B000F00F0380335B01024AD150704700BF20
S11328C020000020008000400F2801D900BEFEE750
S11328D00A4B1B680BB900BEFEE753F820300BB956
S11328E000BEFEE700F00F035B0103F1804303F534
S11328F0004341F210029950704700BF20000020AD
S11329000F2801D900BEFEE708B5084B1B680BB9B8
S113291000BEFEE753F820300BB900BEFEE70A46BE
S113292000F00F01024800F09FF808BD20000020CD
S1132930008000400F2801D900BEFEE708B5084B0F
S11329401B680BB900BEFEE753F820300BB900BE7C
S1132950FEE700F00F01034800F0BAF808BD00BF1D
S1132960200000200080004008B100BEFEE70148BE
S1132970704700BF008000400AB981767047C17675
S1132980704700EB4111002341F208028B5001F51E
S11329908052136041F204028B5241F206028B52C0
S11329A041F20C028B5041F210028B5041F214029E
S11329B08B5241F216028B5241F218028B5041F2B3
S11329C01C028B5241F21E028B5270470F2901D90F
S11329D000BEFEE710B4DB00DCB29DF8083003F063
S11329E00703234343EAC2239DF80420120202F49E
S11329F0E06213439BB2803100EB4111CB805DF860
S1132A00044B70470F2901D900BEFEE7036813F099
S1132A10800F15D010B400EB411341F208041B5988
S1132A20002B13DB00EB41131B5913F0804F0DD126
S1132A3022F0404200EB41110A515DF8044B70470B
S1132A4000EB411141F20803CA50704700EB4111F9
S1132A5041F20804085920F47F7020F00300C2F307
S1132A60090303430B51E8E70F2901D900BEFEE730
S1132A7010B4034600EB411041F21E04005B10F455
S1132A80004F14D103EB411341F21E00195AC2F353
S1132A900E0201F400411143195241F21600195A71
S1132AA001F400410A431A525DF8044B704703EBEA
S1132AB04113195BC2F3080201F47E411143195317
S1132AC041F21600195A01F47E410A431A52EBE707
S1132AD00F2901D900BEFEE700EB411341F21E02AB
S1132AE09B5A13F4004F00EB411041F21603C05AF5
S1132AF014BFC0F30800C0F30E00704708B50020EF
S1132B00FFF738FD08BD08B50120FFF733FD08BD08
S1132B1008B50220FFF72EFD08BD08B50320FFF716
S1132B2029FD08BD08B50420FFF724FD08BD08B53C
S1132B300520FFF71FFD08BD08B50620FFF71AFDA5
S1132B4008BD08B50720FFF715FD08BD08B5082026
S1132B50FFF710FD08BD08B50920FFF70BFD08BD00
S1132B6008B50A20FFF706FD08BD08B50B20FFF7DE
S1132B7001FD08BD08B50C20FFF7FCFC08BD08B535
S1132B800D20FFF7F7FC08BD08B50E20FFF7F2FC97
S1132B9008BD08B50F20FFF7EDFC08BD38B50020CF
S1132BA0FFF7E2FEC56A002404E06D080134E4B2D4
S1132BB0102C06D015F0010FF7D02046FFF7EAFCE1
S1132BC0F3E738BD09B900BEFEE710B40A4643680E
S1132BD023F007031B041B0C43604168136803F0D4
S1132BE00703D46843EA04630B439168090401F4BE
S1132BF0E0210B435168C90401F460110B431269CD
S1132C00920502F44002134343605DF8044B70479D
S1132C1009B900BEFEE710B40A46036D03F0004391
S1132C200365046D0B689B029BB2896801F01F0168
S1132C3021430B435168490101F478710B43D46873
S1132C40064901EA44510B431269120402F4F812D2
S1132C50134303655DF8044B704700BF0000E07F39
S1132C6009B900BEFEE710B40A46D0F8041C114BA3
S1132C700B40C0F8043CD0F8044C13689B0203F4E6
S1132C80F843916801F0070121430B43516849015E
S1132C90C9B20B43D468084901EA04510B431269D1
S1132CA0120402F4E0221343C0F8043C5DF8044B20
S1132CB0704700BF188308C00000F03F022801D904
S1132CC000BEFEE70AB900BEFEE72DE9F04186B07A
S1132CD0984614460E46244B53F82050234B53F881
S1132CE02070384600F0F2FC864237D205EBC60568
S1132CF06B79002B35D106F01F02012393401F2E60
S1132D0098BF3B6302236B719DF83430AB71E37A57
S1132D10EB716368049323788DF80C30237A8DF873
S1132D201430637A8DF81530A37A8DF81630E37A6F
S1132D308BB11C2302930C9B0093434602AA314699
S1132D40384600F01FFF034608B100226A71184696
S1132D5006B0BDE8F0810C230293ECE74FF4407316
S1132D60F5E70223F3E700BF240000208C8600006F
S1132D70022801D900BEFEE72DE9F8431E46174696
S1132D800C461B4B53F820501A4B53F8208028460E
S1132D9000F09CFC844222D22B6813F0005F06D022
S1132DA0696BC1F30361490007318C421AD908EBFE
S1132DB0C40999F80530C3B9012289F8052048F8F7
S1132DC0347089F806602146284600F015FD034654
S1132DD010B1002289F805201846BDE8F8834FF4A5
S1132DE04073F9E74FF44073F6E70223F4E700BFBA
S1132DF08C86000024000020022801D900BEFEE7D2
S1132E0070B50646254B53F8204094F811310BB3A6
S1132E106379DBB2032B2FD0256894F81001FFF7F8
S1132E201DFD2B6813F4001F02D16A68920C6A60BE
S1132E30C3F303432B74AB681BBAAB60EB681BBAD8
S1132E40EB60D4F80051BDB123460022082130467E
S1132E50A84711E0124B53F82050002205212846C0
S1132E6000F0CAFC00220621284600F0C5FC00221E
S1132E700721284600F0C0FC00232360A37933B95E
S1132E806379DBB2032B1CBF0023637170BD201D6B
S1132E9003F080FE0028F3D000BEFEE724000020EB
S1132EA08C860000022801D900BEFEE770B50C46EE
S1132EB0094B53F820600022084B53F8200000F01F
S1132EC09BFCE4003519AB791BB10434301903F0D1
S1132ED061FE00236B7170BD240000208C8600000D
S1132EE0022801D900BEFEE770B514460E460A4B0F
S1132EF053F82050284600F0AAFC3EB9074B03EAD9
S1132F0084446C61284600F095FC70BD012E04BF1A
S1132F1024F060446C61F5E78C8600000000FC1F1F
S1132F20022801D900BEFEE709B900BEFEE78F4BB7
S1132F3053F820300BB100BEFEE72DE9F04786B010
S1132F4015460E4607468A4B53F820402368002B4B
S1132F5005DB204600F07BFC204600F0E2FB6268C3
S1132F606B7A5B0303F4005322F40052134363604F
S1132F70204600F0C1FB204600F069FC204600F02A
S1132F80DDFB236823F400632A7A5ABB2360236D94
S1132F9023F0004300222DE00DF1040C05F10C0E8A
S1132FA0BEE80F00ACE80F00DEF80030CCF80030CB
S1132FB001A92046FFF706FE80E08CB100254846B3
S1132FC003F00BFE013509F10809A542F7D10123ED
S1132FD0184606B0BDE8F0870123F9E70123F7E7B7
S1132FE00123F5E743F400632360236D23F00043DA
S1132FF04FF000421343236523682A7AC3F3C023A6
S11330009A42E9D1636B23F48053002A14BF4FF42E
S11330108052002213436363AB79022B03D02368ED
S113302043F4003323606B7933B12979204600F0EF
S1133030B9FB03460028CBD195F83430012B07D1D6
S1133040236813F0005FC9D0236843F4004323606E
S113305095F834301BB9236823F400432360E979DD
S1133060204600F079FC2968204600F057FE03460C
S11330700028ADD1236813F4006F8DD00DF1040C3A
S113308005F10C0EBEE80F00ACE80F00DEF80030CE
S1133090CCF8003001A92046FFF7BAFD0DF1040C6D
S11330A005F1200EBEE80F00ACE80F00DEF800309A
S11330B0CCF8003001A92046FFF7D2FDA9792046BB
S11330C000F01BFCAB79032B02D0204600F0B2FBCE
S11330D0284BD85710F1800F01D001F0C3FD264BC7
S11330E0D85701F0BFFD254BD85701F0BBFD244B49
S11330F0D85710F1800F01D001F0B4FD204B3B44B0
S113310093F9030010F1800F01D001F0ABFD06F13B
S11331100409C8460024A2465146404603F050FD27
S1133120034600287FF449AF88F802A048F804ACAD
S113313006EBC40282F805A0013408F10808202C2B
S1133140EAD195F8342086F8112195F8352086F8CF
S113315010210022C6F80021C6F80421C6F808216F
S1133160C6F80C21014A42F8276031E72400002008
S11331708C860000A88600009C86000098860000CB
S1133180A0860000022801D900BEFEE70AB900BEED
S1133190FEE710B586B00D4C54F820005468049432
S11331A014788DF80C40947A8DF81640147A8DF8C2
S11331B01440527A8DF8152006AA082442F8104DBE
S11331C00024009400F0DEFC06B010BD8C860000E4
S11331D0022801D900BEFEE70AB900BEFEE730B5F9
S11331E083B00C460A4951F82050002101910699F8
S11331F000912146FFF762FD034628B901222146CA
S1133200284600F0F9FA0346184603B030BD00BF63
S11332108C860000022801D900BEFEE70AB900BE70
S1133220FEE770B584B01D4613460C46164A52F8A4
S113323020605A6802921A788DF804201B7A8DF85F
S11332400C3004AA0F2342F8103D2B46304600F000
S1133250D9FB0346A0B904AA002342F8103D2B462B
S11332602146304600F0CEFB034648B904AA0423A5
S113327042F8103D2B462146304600F0C3FB03467E
S1133280184604B070BD00BF8C860000022801D926
S113329000BEFEE708B50023FFF76AFD08BD000085
S11332A0022801D900BEFEE710B5074B53F82040B1
S11332B0064B53F82020D2F808310BB10A21984765
S11332C0204600F0E5FA10BD8C86000024000020A2
S11332D0022801D900BEFEE7F8B5184B53F8205078
S11332E0174B53F820602B6813F4804F25D0044605
S11332F0D5F8083B13F4003F0CD0D5F8083B43F451
S11333000033C5F8083BD6F800711FB133460022DC
S11333100521B847D5F8083B13F4803F0DD0D5F804
S1133320083B43F48033C5F8083BD6F8005125B177
S11333303346002206212046A847F8BD8C860000AB
S113334024000020022801D900BEFEE72DE9F04147
S113335086B00646684B53F82050AB6A2A6B13407C
S113336003F00103002463B90134202C00F0AE8083
S1133370AB6A2A6B134004F01F02D34003F001032D
S1133380F1E7002B00F0A2805C4B53F826702B6809
S113339013F0005F69D0072C67D8052C47D17B79DF
S11333A0DBB2012B12D13968284600F07BFA304693
S11333B0FFF722FD20232B63D7F80081B8F1000F1B
S11333C004D03B46002201213046C04707EBC40825
S11333D098F80530DBB2022B26D121463046FFF7A0
S11333E061FD98F80730002B68D02146284600F08C
S11333F0C3FB01AA2146284600F06AFBAB689DF88E
S1133400073003F00F03042B06D104F01F0201233D
S113341093401F2C00D82B63D7F8005125B13B46AD
S1133420224604213046A84706B0BDE8F081062CA8
S11334300CD140232B63D7F80081B8F1000FC5D01D
S11334403B46002202213046C047BFE7072CBDD1CE
S113345080232B63D7F80081B8F1000FB6D03B4628
S1133460002203213046C047B0E707EBC4035B7971
S1133470DBB2012BAAD12146284600F07DFB57F888
S113348034202146284600F023FB00289ED1AB6857
S113349021463046FFF706FD04F01F020123934046
S11334A01F2C98BF2B63D7F80081B8F1000F8DD083
S11334B03B46224600213046C04787E704F01F02FE
S11334C0012393401F2C98BF2B63A5E766B9D5F859
S11334D0083BD5F8082B5B0C43EA124313F0010FA9
S11334E002D00020FFF7F4FEEB69002B9CD030469D
S11334F0FFF7D6FE98E700BF8C860000240000206A
S1133500022801D900BEFEE7074B53F8203003EB35
S1133510C1035A7932B15B79DBB2032B0CBF0120B2
S1133520022070470020704724000020022801D99F
S113353000BEFEE72DE9F8434D4B53F8207007EB2E
S1133540C10898F805301BB940F20130BDE8F88392
S11335500C460646474B53F8205098F80530DBB22A
S1133560022B2BD10F46FFF79DFC04F01F09012607
S113357006FA09F61F2C98BF2E632146284600F050
S11335802BFA1F2FFDD82B6B334023FA09F313F0CA
S1133590FF0FF6D02146284600F006FA0368C3F36D
S11335A00363082B40F2013018BF00201F2C98BF82
S11335B02E63002388F80530BDE8F88398F80530B9
S11335C0DBB2012B32D1FFF76DFC2B6813F0005FE7
S11335D028D06B6BC3F303635B0007339C4203D9AE
S11335E02146284600F002FA04BB002205212846A1
S11335F000F002F997F81131012B03D197F810016B
S1133600FFF72CF9AB6A04F01F040127A7403B40E5
S113361023FA04F4E3B2012B27D100213046FFF74B
S113362041FC15E02146284600F0E0F91F2C13D890
S1133630AB6A04F01F02012797403B40D340DBB242
S1133640012B0CD121463046FFF72CFC1F2C09D846
S11336502F630020BDE8F8830020BDE8F883002034
S1133660BDE8F8830020BDE8F8830020BDE8F883B6
S1133670240000208C860000022801D900BEFEE749
S1133680034B53F82030C3F80011C3F804217047EA
S113369024000020082817D90938062813D8DFE8A1
S11336A000F00406080A0C0E10000C2070471020CD
S11336B0704714207047182070472020704730202E
S11336C07047402070470020704700000346084AB6
S11336D0904209D002F58052904207D00020054A5A
S11336E0934208BF102070472020F8E7102070474D
S11336F00040024000B00240036813F4801F0FD062
S1133700036823F000430360036823F080430360ED
S1133710036823F080530360036813F0006FFBD148
S113372070470368002B07DB036843F00043036022
S1133730036813F4801FFBD07047000070B5044683
S1133740036843F000730360236813F0007FFBD128
S1133750236843F4805323602046FFF7B7FF04F146
S11337608001860007D00B4601EB8601002543F853
S1133770045B8B42FBD104F5086230B1134632443A
S1133780002143F8041B9A42FBD14FF0FF3323611D
S11337906361A3610022A2622363014B236270BDB3
S11337A006003B0038B504460D46FFF78FFF01467F
S11337B0236803F40063002B14BF012000201AD1F6
S11337C0236843F000532360626B2B0603F070639D
S11337D022F07062134363634FF0FF33A36489B232
S11337E049B100236FF0604503F5087244F8225094
S11337F001338B42F8D138BD036803F07F038B4259
S113380007D24FF440707047836A194381620020E5
S113381070471F290CD801F01F01012303FA01F19D
S1133820002AF1D1836A23EA0101816200207047F2
S113383000207047036823F080530360036823F07B
S113384080430360036813F0807FFBD170470368F3
S113385043F080430360036843F0805303600368CC
S1133860002B0EDB0122036813F0807FFBD03AB9F2
S1133870036843F000430360036813F4801FFBD024
S11338807047036823F0004303600022EBE7000065
S1133890026A034B134013B1014B0362036A70477E
S11338A006003B0009B900BEFEE770B50D460446AC
S11338B0D0F88000C0F30340FFF7ECFE2874D4F87E
S11338C080302B6013F4001F05D0D4F884306B6073
S11338D0064628B970BDD4F884309B0C6B60F7E7BA
S11338E00023883499088A0054F8211009BA2A441C
S11338F091600433B342F5D370BD08B504292AD8C6
S1133900DFE801F00B181D030600FFF7A0FF08BD58
S1133910036843F00043036008BD036823F4000315
S11339200360436823F008034360436823F480532F
S1133930436008BD436843F00803436008BD43681F
S113394043F480534360436823F0080343600368EF
S113395023F40033036008BD036813F4006F06BF4B
S1133960B1FA81F35B0901230BB900BEFEE70368DA
S113397013F4006F07D0D0F8003C23F4403343EA3B
S11339800143C0F8003C7047036813F4006F09D08A
S1133990D0F8000CC0F301400330012303FA00F017
S11339A0C0B270470820FBE738B504460D46FFF760
S11339B0EBFF0830C0B24FF40073B3FBF0F3DBB29B
S11339C0B5FBF3F203FB12538008D20100FB032082
S11339D0203004EB800038BD08B5FFF7E5FF03682D
S11339E023F0706343F01063036008BD08B5FFF76C
S11339F0DBFF036823F07063036043F080630360BC
S1133A0008BD00000AB900BEFEE7F8B515461F461A
S1133A100E460446FFF7C8FF236803F07F039E4267
S1133A204CD8236813F0005F06D0636BC3F30363C1
S1133A305B0007339E423ED90023036043602B7929
S1133A40012B10D1036843F400130360036823F4CB
S1133A5080030360436803F060434360426827F0D7
S1133A606043134343602B797BB9036823F4C00399
S1133A700360436823F0FF5323F4E0134360426878
S1133A80124B03EA8743134343602B680F2B10D078
S1133A90036823F07063036002682B681B0603F05D
S1133AA07063134303600020F8BD636B4FF44070F0
S1133AB0F8BD0020F8BD4FF44070F8BD236813F042
S1133AC0005FF2D14FF44070F8BD00BF0000FC1F4E
S1133AD00AB900BEFEE72DE9F04114460F468046C0
S1133AE0FFF762FF054604F108060068C0F30340CF
S1133AF0FFF7D0FD2074D8F8003013F0005F07D032
S1133B00D8F83430C3F303635B0007339F422CD9E6
S1133B102B68236013F4001F03D16B689B0C636054
S1133B2001E06B68636030F0030708BF00230BD02B
S1133B30002399088A000832AA5812BA46F82120AC
S1133B400433DBB2BB42F4D3834212D2DA1D1444F1
S1133B5083F003020832AA5C04F8012F0133DBB2BC
S1133B609842F5D10020BDE8F0814FF44070BDE8E3
S1133B70F0810020BDE8F08108B5FFF715FF036868
S1133B8008BD00002DE9F047089F0AB900BEFEE712
S1133B901546994688460646FFF706FF044600F197
S1133BA0080A336803F07F03984500F2A98033685C
S1133BB013F0005F07D0736BC3F303635B00073339
S1133BC0984540F29980336813F4006F07D0AB7BBB
S1133BD02BB1D6F8003C43F00043C6F8003C95F8FE
S1133BE008803046FFF7D0FE804506D900BEFEE7C8
S1133BF0736B4FF44070BDE8F087AE68F3B2402BAE
S1133C009ABF444AD05CFF2080465FB3FFF742FD71
S1133C1036F003030DD0002399088A00083257F8C0
S1133C20211009BAA1500433AA6822F003029A426F
S1133C30F2D8AA6893420AD21F4483F0030217F809
S1133C40011B0AF802100133AA689A42F5D8034608
S1133C50824207D282F00301687B0AF80100013234
S1133C609A42F7D10023236063602B79012B39D169
S1133C70636803F060436360626829F06043134340
S1133C8063604FF400132A7962B9636823F0FF5329
S1133C9023F4E013636062681F4B03EA8943134310
S1133CA0636000234FEA084202F4702213432A6837
S1133CB00F2A1ED01C2A08BF43F4801323F070631C
S1133CC0297B89B1120602F0706242F0004213436C
S1133CD0AA7B0AB143F08043226813432360002087
S1133CE0BDE8F0870023CEE7120602F070621343AA
S1133CF0EEE70020BDE8F0874FF44070BDE8F087A0
S1133D00336813F0005F7FF473AF4FF44070BDE885
S1133D10F08700BFAC8600000000FC1F09B900BE9C
S1133D20FEE72DE9F8430D460446FFF72DFE06464F
S1133D3005F1FF3841462046FFF736FE3746831922
S1133D40083304F52072934232D82046FFF7BEFCB4
S1133D50854231D8236823F07F0308F07F0843EAC3
S1133D6008032360216811F0005102D00020BDE84F
S1133D70F8832DB30026B04607F1080904E00136A4
S1133D80F6B23146B54210D92046FFF70DFEC0F811
S1133D900080C0F80480002FF1D000F108034844EB
S1133DA003F8018B9842FBD1E9E70020BDE8F883D2
S1133DB04FF44070BDE8F8834FF44070BDE8F883D9
S1133DC00020BDE8F88308B50020FFF7BBFA08BD62
S1133DD008B50020FFF764FA08BD08B50020FFF716
S1133DE077FA08BD08B50020FFF7ACFA08BD08B59E
S1133DF00020FFF7A7FA08BD08B50120FFF7A2FAD3
S1133E0008BD08B50120FFF74BFA08BD08B501202D
S1133E10FFF798FA08BD08B50220FFF793FA08BD2A
S1133E2008B50220FFF73CFA08BD08B50220FFF7E9
S1133E3089FA08BD032801D900BEFEE709B900BE0E
S1133E40FEE76D4B53F820304A78002A40F090800A
S1133E508A78002A40F0A180CA7802F0010208782A
S1133E60002800F0C580002A40F09380D3F88C200D
S1133E7042F48062C3F88C20D3F88C2042F40062B0
S1133E80C3F88C20D3F88C2042F48052C3F88C20E1
S1133E90D3F88C2042F40072C3F88C20D3F88C0041
S1133EA0CA7A120202F4807220F480700243C3F8CA
S1133EB08C20D3F88C2042F08002C3F88C204A78FE
S1133EC0002A57D09A6D42F010029A658A78002A27
S1133ED055D09A6D42F020029A65CA78002A53D0D0
S1133EE09A6D42F040029A65986D0A79520002F088
S1133EF0020220F0020002439A659A6D22F0010248
S1133F00487902439A659A6D087A003018BF0120F7
S1133F1022F0080242EAC0029A65D3F88C008A793A
S1133F20120102F0100220F010000243C3F88C20AA
S1133F30D3F88C00CA79520102F0200220F020004C
S1133F400243C3F88C20D3F88C004A7A920002F022
S1133F50040220F004000243C3F88C20D3F88C2020
S1133F6022F00102897A0A43C3F88C2000207047AA
S1133F70012272E79A6D22F010029A65A6E79A6D03
S1133F8022F020029A65A8E79A6D22F040029A6511
S1133F90AAE701207047012070470A78002AFAD165
S1133FA0002A7FF463AFD3F88C2042F48022C3F854
S1133FB08C20D3F88C2042F40022C3F88C20D3F850
S1133FC08C2042F48012C3F88C20D3F88C2042F465
S1133FD00032C3F88C20D3F88C20C87A003018BF84
S1133FE0012022F4803242EA0042C3F88C2060E7C8
S1133FF0002AD8D101207047F0860000032801D997
S113400000BEFEE770B582B004461D4B53F8203065
S1134010002201921E681B4B53F820301B78022BA0
S113402019D0032B03D0012B1AD0002010E0164B1B
S113403003EB40035D7801A92846FEF76FFA019B64
S113404013B9114B13F8145001A92846FEF766FA68
S113405058B100BEFEE701A91A20FEF75FFAF7E7A0
S113406001A90020FEF75AFAF2E706F0070201233D
S11340709340DBB20198B0FBF3F002B070BD00BF17
S1134080F08600003000002000870000032801D9DA
S113409000BEFEE709B900BEFEE70AB900BEFEE7AE
S11340A0F8B58C7B631EDBB2022B01D900BEFEE7A0
S11340B0344B53F82050344B53F82030002B58D154
S11340C0147053705380304B43F8202002F10804DD
S11340D002F1180702F1580E02F1380C3E46002393
S11340E024F8023B46F8043B4CF8043B0EF8013B31
S11340F0BC42F5D114460F460646284600F066F841
S1134100797B284600F056F83046FFF777FF606069
S1134110002830D100BEFEE739463046FFF78AFE5C
S11341200446EA6E7B7C9B0103F0400322F04002CC
S11341301343EB66D5F88420FB7B9B01DBB222F0B2
S1134140C0021343C5F884303B7C4BB12B6843F465
S113415080732B600D4B985700F084FD2046F8BD0A
S11341602B6823F480732B60084B985700F08EFD66
S1134170F4E70124F2E73B7B023BDBB2022BCBD911
S11341800024CEE7F08600003000002008870000FD
S1134190032801D900BEFEE709B900BEFEE7044BBF
S11341A053F820305868B0FBF1F080B2704700BF7C
S11341B030000020436D43F001034365036823F09E
S11341C0070301F007010B430360704710B4436F0A
S11341D000234367042242650268036043608360EE
S11341E0C364026D03658365C365036643668366C2
S11341F0C26EC36603678367C367C0F88030C0F8C4
S11342008430C0F88830C0F88C30C0F89030C0F8E2
S11342109430C0F89830C0F89C30194600EBC302C3
S1134220D468D16011610133082BF7D15DF8044BD8
S11342307047072901D900BEFEE701290DD90529D8
S113424099BF0239012306394FF480738B403AB980
S1134250C26E22EA0303C366704710238B40F6E75D
S1134260C26E1343C36670472DE9F047BDF820C002
S1134270032801D900BEFEE707298CBF4FF0000ECA
S11342804FF0010EBEF1000F01D100BEFEE74C0855
S1134290524D55F82060524D55F82070B568ADB2B6
S11342A07878042824D16D00ADB200203ABBB3F570
S11342B0004F00F28A80BCF5004F00F2898005FBB4
S11342C003F2C2F3CF3205FB0CFCCCF3CF3CB3F5C5
S11342D0004F1BD1531C9BB2B0B9032C8CBF4FF0C1
S11342E000094FF00109B9F1000F11D100BEFEE73A
S11342F0032803BF0135ADB200200120D6E79D425B
S113430069D36545E8D20120BDE8F0871346E3E7A9
S1134310D6F864A04FEAC408012202FA08F212EAAD
S11343200A0F39D0B9F1000F01D100BEFEE7716E5A
S1134330802202FA08F20A4213D0326812F0180FEF
S113434008D16200072A01D900BEFEE7013206EB5C
S1134350C202936063000133DBB2072B0BD900BEAA
S1134360FEE76200072A01D900BEFEE7013206EB30
S1134370C2029360EEE7013306EBC303C3F808C03F
S1134380B26D9DF82430DB01DBB222F080021343CE
S1134390B3657D80BDE8F087326812F0200F0AD043
S11343A05B08BEF1000F01D100BEFEE74A1C06EB1C
S11343B0C2029360E4E7BEF1000F01D100BEFEE744
S11343C04A1C06EBC2029360DAE70120BDE8F087DD
S11343D00120BDE8F0870120BDE8F087F0860000E9
S11343E030000020032801D900BEFEE709B900BE51
S11343F0FEE72DE9F04F85B0AB4B53F82080AB4B73
S113440053F82040B8F1000F00F0FF8398F8013012
S1134410002B40F0FC830D460290236823F0180320
S11344202360236823F4007323602368636D43F0DF
S1134430040363658B7888F801300B78002B00F057
S11344405681CB681E7871085B79072E8CBF0020DB
S1134450012008B900BEFEE70027BA464FF0010963
S11344604FF0020BDFE0226F09FA06F313432367D0
S1134470E2E008B900BEFEE704EBC603DA6842F0E6
S11344800402DA60DA6822F00802DA60E8E000BECA
S1134490FEE7A3B1626ECB004FF0100C0CFA03F3ED
S11344A013436366731CDBB2072B8CBF4FF0000C05
S11344B04FF0010CBCF1000F0BD100BEFEE7636EA0
S11344C0CA004FF0100C0CFA02F223EA02036366EE
S11344D0E8E704EBC302D2F80CE02EF0040EC2F8B5
S11344E00CE0D2F80CE04EF0080EC2F80CE0032900
S11344F001D900BEFEE7D4F864E0CA000BFA02F268
S113450042EA0E026266EA683A4492F807E0BEF1B3
S1134510010F40F0B5805279BCF1000F01D100BE0B
S1134520FEE7002A40F0A680226F09FA03F322EA8C
S11345300303236703298CBF00230123002B00F00E
S1134540C380626EC9004FF0040C0CFA01FC22EA2D
S11345500C026266002B00F0B980626E09FA01FC5D
S113456022EA0C026266002B00F0B280626E4FF009
S1134570800C0CFA01FC22EA0C026266002800F0AE
S1134580A98004EBC602D06840F01000D060D06867
S113459040F02000D0606A69D278002B00F09C8043
S11345A0002A00F09B80606E40228A4002436266CB
S11345B0002B00F09A80626E202303FA01F10A4373
S11345C06266EB683B441A7931462046FFF731FEB8
S11345D0226806F1100309FA03F313432360EB681E
S11345E03B449B793BB12268731CDBB2103309FA5C
S11345F003F3134323600AF1010A5FFA8AFA2B7862
S1134600534574D90AEB8A014B001F46EA681344E8
S113461012F8116071085B79072E8CBF002001200D
S113462000283FF417AF002B7FF41DAF236F09FA66
S113463006F223EA02032367EB683B445A795B786A
S11346409A423FF416AF00283FF421AF04EBC603AF
S1134650DA6822F00402DA60DA6842F00802DA600A
S1134660EB683B449A791AB31B7A07297FF611AF9A
S113467000BEFEE7226F09FA03F31343236759E7E9
S11346805279BCF1000F01D100BEFEE732B1226FB6
S113469009FA03F322EA030323674BE7226F09FABB
S11346A003F31343236745E730000020F08600003E
S11346B0032901D900BEFEE7636ECA000BFA02F2B9
S11346C023EA0203636635E700BEFEE700BEFEE7A9
S11346D000BEFEE700BEFEE700BEFEE7626E4020BD
S11346E0884022EA0002626662E700BEFEE79D4B54
S11346F0029A53F822606B78002B00F07A812B69C0
S11347001A784FEA520C12F0010F11D15B7B072A81
S11347108CBF0020012020BB00BEFEE7039B1F01CD
S11347202B69D919DA5D4FEA520C12F0010F01D04E
S113473000BEFEE74B7B072A8CBF00200120002827
S1134740EAD09BB9336F09FA02F123EA0103336714
S11347502B693B44597B1B7A99421FD160B900BE37
S1134760FEE7002703974FF00109EAE7316F09FAE2
S113477002F30B433367EBE706EBC203D96841F05E
S11347800401D960D96821F00801D960BCF1030F94
S11347908CBF0021012179B900BEFEE708B900BE33
S11347A0FEE706EBC203D96821F00401D960D96899
S11347B041F00801D960E9E7D6F864E04FEACC0398
S11347C04FF0040A0AFA03FA2EEA0A0EC6F864E065
S11347D008B900BEFEE706EBC200D0F80CE04EF0CC
S11347E0100EC0F80CE0D0F80CE04EF0200EC0F82B
S11347F00CE0D6F800E002F1100009FA00F040EAFB
S11348000E0030602869384490F809E0BEF1000FCA
S113481058D002F1010E5FFA8EFE807BBEF1070FC5
S11348208CBF4FF0000A4FF0010ABAF1000F01D11A
S113483000BEFEE750B9306F09FA0EFB20EA0B0008
S11348403067BAF1000F09D100BEFEE7D6F870B0A8
S113485009FA0EF040EA0B003067F2E706EBCE00EF
S1134860D0F80CA02AF0040AC0F80CA0D0F80CA0D0
S11348704AF0080AC0F80CA02869384490F80EB031
S113488090F80DA0D3452ED190F80AA0BAF1000FEC
S11348901ED18079012801D100BEFEE709B900BE0E
S11348A0FEE7706E4FF0020A0AFA03FA20EA0A00E1
S11348B07066D6F800A00EF1100009FA00F040EA84
S11348C00A0030606869C07800292DD100BEFEE777
S11348D009B900BEFEE7D6F864A00220984040EA79
S11348E00A007066E5E790F80AA0BAF1000F0AD151
S11348F009B900BEFEE7D6F864A00220984040EA59
S11349000A007066D5E78079012801D100BEFEE770
S113491009B900BEFEE7706E4FF0020A0AFA03FA04
S113492020EA0A007066C4E748B1D6F864E0402083
S1134930984040EA0E00706651B900BEFEE7706E02
S11349404FF0400E0EFA03FE20EA0E007066F3E705
S1134950D6F864E02020984040EA0E00706619B949
S113496000BEFEE7F0860000D6F864E009FA03F022
S113497040EA0E00706628693844C07909B900BE5F
S1134980FEE760B1706E8021994001437166296928
S113499039448979BCF1070F08D900BEFEE7716E6E
S11349A08020984021EA00017166F0E7002953D085
S11349B0706E102101FA03F30343736602F0FE0ADA
S11349C02B693B44DA7A51463046FFF732FC2B69B7
S11349D03B440AF101011A7BC9B23046FFF729FCB6
S11349E0039B0133DBB21A4603936B7893423FF681
S11349F095AE636D43F0020363656B69DA78002A50
S1134A007CD01B78002B2FD0E36F43F40043E36783
S1134A10E26F6B699B781B0203F4706322F470628B
S1134A201343E367029B042B34BF4FF0040C4FF095
S1134A30020C04260020012703466A6900EB4001AA
S1134A400A441279002A43D0C2B2032A8CBF00223E
S1134A50012272B900BEFEE7716E102000FA03F362
S1134A6021EA03037366A9E7E36F23F40043E367D2
S1134A70CEE7E16F07FA00FE41EA0E01E1676969DA
S1134A8000EB4009494449790AB900BEFEE771B117
S1134A90D4F87C9007FA06F141EA0901E1676969F3
S1134AA003EB43030B449B7942B900BEFEE7E16F7D
S1134AB007FA06F921EA0901E167F0E7012BD4F8C6
S1134AC088300CBF23EA0E0343EA0E03C4F888308F
S1134AD001300136C3B29C45AED86B695B781BB11B
S1134AE0636D43F080036365626D6B69DB785B0122
S1134AF003F0600322F06002134363652368AA781D
S1134B00042A14BF0022012223F0200343EA4213A3
S1134B102360A9680298FFF73BFBA8F80200E36C46
S1134B201B0C1B04E364AB78042B3BD1A368B8F8DB
S1134B3002201B0C1B0443EA5203A3602B78002BB6
S1134B4067D00026374606EB8601EA6802EB41038C
S1134B505B8812F81110019700973A460298FFF704
S1134B6083FB0136F6B22B78B342ECD86B7893B161
S1134B70002637463101286942185388415C019761
S1134B80928800923A460298FFF76EFB0136F6B21D
S1134B906B78B342EED8002833D1EA783F2A0BD998
S1134BA000BEFEE7A268B8F80230013B9BB2120CCB
S1134BB012041343A360C1E7A36E23F03F0302F082
S1134BC03F021343A366A26E2B799B01DBB222F052
S1134BD0C0021343A366636D43F001036365636D11
S1134BE043F008036365226898F80030DB0003F0A3
S1134BF0180322F0180213432360002005B0BDE817
S1134C00F08F002388F80130F8E70120F6E701204F
S1134C10F4E76B78002BABD1BFE700BF10F10E0FA8
S1134C2001DA00BEFEE77A2801DD00BEFEE710B41B
S1134C304FF0E023D3F8083D094C9C4201D000BE5C
S1134C40FEE72AB100F11003054C54F82330136039
S1134C501030034B43F820105DF8044B704700BF3D
S1134C600080FF1F002801DA00BEFEE77A2801DD7C
S1134C7000BEFEE7420900F01F00012303FA00F022
S1134C80014B43F82200704700E100E0002801DAFC
S1134C9000BEFEE77A2801DD00BEFEE7430900F00E
S1134CA01F00012202FA00F02033024A42F82300D6
S1134CB0704700BF00E100E0054B1B68002B04DDDA
S1134CC0013B034A1360002B00DD704762B6FCE72A
S1134CD04000002072B6024A136801331360704723
S1134CE04000002008B100BEFEE730B583B00546A1
S1134CF009B900BEFEE70C462B4901EB80014520B3
S1134D00FDF70CFC08B100BEFEE7274B53F8253035
S1134D100BB900BEFEE7002002A941F8040DFDF71F
S1134D20FDFB214B53F82520019B03EB5203B3FBFE
S1134D30F2F319461D48826842F0020282602BB1E8
S1134D40013900BF00BF00BF0029F9D1174A91689B
S1134D5021F0020191601846916841F001019160CF
S1134D602BB1013800BF00BF00BF0028F9D1217862
S1134D700E4B9A6822F008029A609A68002914BFC0
S1134D80082300231A43094B9A6061789A6822F039
S1134D9004029A609B68002914BF04220022134372
S1134DA0024A936003B030BD440000200070034009
S1134DB008B100BEFEE70F2901D900BEFEE7024B91
S1134DC05A691143596170470070034008B100BE2D
S1134DD0FEE7F8B50546032901D900BEFEE71646ED
S1134DE00C46284901EB80014520FDF797FB08B1EB
S1134DF000BEFEE7234B53F8250008B900BEFEE7CA
S1134E00214A0023A6FB0001FBF7DEFF10F1FF326D
S1134E1041F1FF33250105F1804505F55C35AD6AA7
S1134E20C5F38105012D20D0022D24D1012B08BF0B
S1134E30002A12D30120F8BD144E00279F4208BF58
S1134E40964210D3002B08BFB2F5803F05D3B0F1D2
S1134E50011002044FF6FF700243A31C1B010C490E
S1134E60CA500020F8BD0120F8BD012B08BF002A5C
S1134E70E2D30120F8BD012B08BF002AEDD30120A5
S1134E80F8BD00BF4400002040420F00FEFF0100B7
S1134E900070034008B100BEFEE7032901D900BE3B
S1134EA0FEE78B1C1B010149CA5070470070034088
S1134EB070B582B030238DF8043031238DF805307D
S1134EC032238DF8063033238DF8073008B100BE45
S1134ED0FEE704460AB900BEFEE7032901D900BE75
S1134EE0FEE729B9D37C002B00F0A68001232CE037
S1134EF0D57C0B0103F1804303F55C33986A20F001
S1134F00020098629E6A002D14BF022300232046EB
S1134F1015460C461E430B0103F1804303F55C3335
S1134F209E621278996A21F00C019962996A920042
S1134F3002F00C020A439A626B78012B08D16A686A
S1134F402146FFF743FF034630B1184602B070BD57
S1134F506A682146FFF79EFF2A7A230103F1804302
S1134F6003F55C33996A21F400019962996AD205C8
S1134F7002F400020A439A62EA68996A21F07061B5
S1134F809962996A120602F070620A439A62297C55
S1134F909A6A22F480229A629A6A002914BF4FF412
S1134FA0802300231A43230103F1804303F55C3378
S1134FB09A62697C9A6A22F400329A629A6A002997
S1134FC014BF4FF4003300231A43230103F1804339
S1134FD003F55C339A62A97C9A6A22F480329A625D
S1134FE09A6A002914BF4FF4803300231A43230123
S1134FF003F1804303F55C339A622B7D6BB1124A53
S113500011690123A3400B43136102AB1C4414F93F
S1135010040CFFF727FE002397E70B490B690122D5
S1135020A24023EA02030B6102AB1C4414F9040CF2
S1135030FFF72CFE002388E7034B986A20F0020058
S113504098629E6A002362E70070034008B100BEC4
S1135050FEE70F2901D900BEFEE7024BD960DB68E9
S1135060704700BF00700340022303610023036103
S11350707047436913F0807F01D0022070470369B1
S113508023F00103036100207047436A23F0010306
S11350901943416200207047036943EA422242EA0D
S11350A0012202617047B1F57C5F07D04269012398
S11350B003FA01F11143416100207047436943F44D
S11350C07C534361F8E710B4436A083101248C40EF
S11350D023EA04038A401A43426200205DF8044B29
S11350E0704710B4446A24F0706483F0010392069C
S11350F042EAC36343EA01632343436200205DF849
S1135100044B7047036C23F0FF03C9B219430164D5
S1135110002070472DE9F04F83B096460193DFF8E5
S1135120F8A04FF00009CDF80090CB464FF0FF35C2
S11351304DE0A1EB03081646E04538BF1D46331B7E
S1135140012B15D9A219C2F34702931C07FB03F3E1
S1135150BEFBF3F38D4234BFA1EB050CA5EB010CB0
S11351608B42E6D35C1A644538BF1D461446E6E715
S1135170A31C07FB03F3BEFBF3F3B21C07FB02F70C
S1135180BEFBF7F799428CBFCA1A5A1AB9428CBFB0
S1135190A1EB070CA7EB010C944528BF26469445C8
S11351A028BF1F468D4234BF4B1B6B1A8F4234BF3E
S11351B0CA1B7A1A9A4203D8CDF80090B3463D46EA
S11351C08D420AD009F10109B9F1080F05D05AF846
S11351D0047F4FF480760024B4E74FEA9B02036C0B
S11351E023F07F4343EA02630364036C23F47F03E5
S11351F043EA02430364036C23F47F4343EA022338
S113520003645946FFF77EFF019B1A46009B136017
S1135210284603B0BDE8F08F08870000CA680B6811
S1135220013B43EAC2634A7C43EAC2730A7C43EA11
S11352308273CA7A43EA02638A7A43EAC2534A7A95
S113524043EA82530A7A43EA4253CA7943EA02534D
S11352508A7943EAC2434A7943EA82430A7943EAB0
S1135260024303667047036E23F0407343EA01610F
S11352700166704708B5002000F032FB08BD08B590
S1135280012000F02DFB08BD08B5022000F028FB2A
S113529008BD0000022801D900BEFEE72DE9F04751
S11352A084B0754C54F820500DB900BEFEE7734C21
S11352B054F82040666916F0807F40F0CF8066691C
S11352C016F0807F40F0CC806E88B3FBF6F706FBC7
S11352D01737BFB2002F40F0C5801E4690468A465D
S11352E08146012211462046FFF7D6FE01221146CF
S11352F02046FFF7D1FE2B791BB1236E43F48013B4
S11353002366002385F826304FF47C512046FFF7AE
S1135310CAFEA36943F40063A361B8F1000F00F06F
S1135320A380A36943F48053A3616E83236E23F4A3
S113533000232366A36D23F44033A365A36D23F0F8
S1135340030343F00203A36595F82430012B1ED117
S1135350C5F810A0C5F814800023AB83EB832E831B
S11353602B791BB12B8B01339BB22B8301232B7322
S1135370B8F1000F03D0A36943F00203A361A3694A
S113538043F00103A361002004B0BDE8F0876B88FB
S1135390022B4DD0042B4DD0012B0CBF002702272C
S11353A0BAF1000F48D095F823000121039126FAA1
S11353B007F3029301FA07F30193009704F16403DE
S11353C05246FDF7F1F9B8F1000F18D095F8220014
S11353D001220392FE400296BA400192009743468E
S11353E004F174020021FDF7DFF94A46244995F8D7
S11353F02200FDF7A7F895F82200FDF713FA4A46B4
S1135400204995F82300FDF79DF895F82300FDF752
S113541009FA01232B73B8F1000F03D0E36943F0B9
S11354200203E361E36943F00103E3610020ABE7B6
S11354300127B5E70227B3E795F823000123039377
S113544026FA07F20292BB400193009704F1640329
S113545005F130020321FDF7A7F9B4E7022093E731
S1135460022091E701208FE700236B83236E43F42E
S1135470002323665EE700BF480000203089FF1F39
S1135480A95700006557000038B51B4B53F820504E
S11354901A4B53F8204000232B7395F82430D3B9CA
S11354A0E36923F00203E361E36923F00103E361A9
S11354B000F0CAFAA36923F48063A3610A21204699
S11354C0FFF7F1FD6B797BB9AB6A1BB1EA6A002186
S11354D02846984738BDA36923F00203A361A36952
S11354E023F00103A361E3E705F1250001F052FB7A
S11354F000236B71E8E700BF480000203089FF1FDC
S1135500022801D900BEFEE709B900BEFEE72DE975
S1135510F04186B0434B53F820500DB900BEFEE76E
S113552090460C46404B53F820603046FFF7A1FDEF
S1135530074600286FD12389A3F1080292B240F6EE
S1135540F8718A4269D82B80E268AA60A2792A712C
S1135550A27C85F82020E27C85F8242000222A738E
S11355606A710733C3F3CF036B80032B4BD104233E
S11355706B80237D85F82230637D85F82330A36911
S1135580AB62E369EB62627921793046FFF79BFDF8
S113559005ABE26821683046FFF7BCFD736A43F04F
S11355A002037362336943F001033361002836D088
S11355B0B8F1000F01D0C8F800002B880093002335
S11355C08DF804308DF805308DF806308DF80730ED
S11355D0A2798DF808208DF80930A37C8DF80A3063
S11355E023798DF80B30059B0393237C8DF81030C1
S11355F0637C8DF8113069463046FFF70FFE38465C
S113560006B0BDE8F081042BB3D9013B23F00303BA
S113561004336B80ADE70127F1E70127EFE70127AA
S1135620EDE700BF480000203089FF1F022801D9A0
S113563000BEFEE709B900BEFEE70AB900BEFEE7F8
S1135640F8B517460C4605461B4B53F820601B4B18
S113565043F825103046FFF707FD01213046FFF7D8
S113566014FD0123002211463046FFF73AFD14F1E0
S1135670210F05D07268D2B20123934084F82130FF
S1135680002239462846FFF73BFF074688B9002128
S1135690216304F1250001F093FA074608B100BE26
S11356A0FEE7074B5857FFF7DDFA336943F0010370
S11356B033613846F8BD00BF3089FF1F4800002021
S11356C03C89FF1F022801D900BEFEE710B5064C35
S11356D054F820400CB900BEFEE713B1FFF7DAFD21
S11356E010BD002010BD00BF48000020022801D9D1
S11356F000BEFEE70A4B53F820300BB900BEFEE7AC
S113570011B15A8B92B20A6093F8262032B91B7BEE
S1135710DBB2002B14BF0220002070470120704729
S113572048000020022801D900BEFEE70B4B53F8C5
S113573020300BB900BEFEE710B5094B53F82040EA
S1135740FFF7A2FE012211462046FFF7A5FC012225
S113575011462046FFF7A0FC002010BD48000020A1
S11357603089FF1F10B50E4B53F820400D4B53F8F2
S1135770203001290DD022791AB11A6E22F4801238
S11357801A660022228362839A6942F480629A61D3
S113579010BDFFF7C7FF012384F8263010BD00BFFA
S11357A0480000203089FF1F012900D0704710B540
S11357B0044B53F82040FFF7B5FF012384F826304B
S11357C010BD00BF48000020022801D900BEFEE73A
S11357D0144B53F820300BB900BEFEE7032901D95E
S11357E000BEFEE770B516460D460F4B53F8204039
S11357F02046FFF73EFC80B9324629462046FFF793
S113580062FC064658B9236943F001032361294623
S11358102046FFF728FD304670BD0126FBE7012630
S1135820F9E700BF480000203089FF1F70B5054626
S1135830294B53F82060294B53F82040636913F433
S1135840006F0BD033694BB1FFF76CFF0B2120467F
S1135850FFF729FC012386F8263070BD636913F431
S1135860805F0CD0736953B12846FFF75BFF0C21AE
S11358702046FFF718FC022386F8263070BD6369C2
S113588013F0020F02D0738B9BB2CBB9636913F090
S1135890010F02D0338B9BB2B3B9338B9BB273B974
S11358A0A36923F00103A361A36943F48063A361A3
S11358B0738B9BB21BB9636913F4806F08D170BDFD
S11358C0284600F07BF8E1E7284600F01DF8E4E7FD
S11358D02846FFF7D9FDF2E7480000203089FF1F72
S11358E002280DD808B5074B53F820305B6A13F033
S11358F0010F02D100F000F908BDFFF797FF08BDC2
S1135900704700BF3089FF1F2A4B53F820302A4AC2
S113591052F82000C26D02F0070293F82110891A90
S113592011F0FF0145D0F0B504244FF0000C1FE046
S1135930026E22F48012026600221A83F0BD12F86D
S1135940015B1A61B3F81CE017FA8EFE9EFBF6F2B7
S113595006FB12E6B6B29E8345661A8BD21B92B240
S11359601A831A8B92B21AB3013911F0FF011FD0B6
S11359701A791AB11A8B92B2012AD9D05E889A8BFD
S113598092B2B21A042ADDBF9A8BB21A97B2274692
S11359901A695AB1012ED2D0022E03D052F8045BF8
S11359A01A61CFE732F8025B1A61CBE76546D3E7A9
S11359B0F0BD7047480000203089FF1FF0B4204B31
S11359C053F820101F4B53F82070FE6DC6F30246A7
S11359D0002E32D04FF0040C22E0644600234869C4
S11359E0DA0025FA02F202704A6901324A6101338F
S11359F09AB29442F3D8CB8B14FA83F2488892FB80
S1135A00F0F300FB13239BB2CB834B8B1C1BA4B280
S1135A104C834B8B9BB283B1013E16F0FF060CD036
S1135A207D6F4C88CB8B9BB2E31A042BD5DCCB8BDC
S1135A30E41AA4B2002CD1D1DDE7F0BC704700BF5A
S1135A40480000203089FF1F10B50A4B53F820404E
S1135A50A36923F40063A361A36923F48053A361BE
S1135A600B212046FFF71FFB0C212046FFF71BFBF1
S1135A7010BD00BF3089FF1F022801D900BEFEE718
S1135A8038B51B4B53F820500DB900BEFEE7194B37
S1135A9053F8204095F82430012B1FD1A36923F03B
S1135AA00103A361A36923F00203A361FFF7CCFF01
S1135AB000232B73012211462046FFF7EDFA012241
S1135AC011462046FFF7E8FA6B792BB105F1250062
S1135AD001F060F800236B71002038BDE36923F006
S1135AE00203E361E36923F00103E361DEE700BF3E
S1135AF0480000203089FF1F70B50646314B53F82B
S1135B002050314B53F820406B6913F4006F07D0D9
S1135B1023692BB1FFF7B0FF012384F8263070BD51
S1135B206B6913F4805F08D0636933B13046FFF7C3
S1135B30A3FF022384F8263070BD6B6913F0020FB3
S1135B4003D0638B9BB2002B2DD16B6913F0010F33
S1135B5002D0238B9BB253BB238B9BB21BB9AB6983
S1135B6023F00103AB61638B9BB21BB9AB6923F0D8
S1135B700203AB61638B9BB2A3B9238B9BB28BB93A
S1135B80AB6923F40063AB61AB6923F48053AB616D
S1135B90A36A1BB1E26A002120469847637953B98E
S1135BA00023237370BD3046FFF708FFCDE730466E
S1135BB0FFF7AAFED0E704F1250000F0EBFF002375
S1135BC06371EDE73089FF1F48000020022801D9E6
S1135BD000BEFEE738B5034609B900BEFEE7174824
S1135BE050F82300164C54F823301C7C1CBB151CA5
S1135BF018BF01252C460DB900BEFEE71D7D1DB161
S1135C0082F0010404F001040CB900BEFEE719603F
S1135C109A6001221A740222DA85836943F400230C
S1135C208361836913F4002FFBD00122054900F03E
S1135C30E4FD002038BD022038BD00BF2C870000E1
S1135C405400002017000300022801D900BEFEE71B
S1135C5009B900BEFEE7F0B585B01D4B53F82050DE
S1135C601C4B53F82040237C002B2FD10AB900BED3
S1135C70FEE713460A46064621600027A760012175
S1135C8021740220E08594F82A0003910293019183
S1135C90009705F11C03FCF787FD32460E4994F882
S1135CA02A00FCF74FFC94F82A00FCF7BBFDAB6913
S1135CB043F40023AB61AB6913F4002FFBD02B69D1
S1135CC043F400032B61002005B0F0BD0220FBE784
S1135CD02C87000054000020AD5D0000022801D98B
S1135CE000BEFEE738B5144B53F82050134B53F85D
S1135CF02040E38D9BB2022B17D10023E3850022C1
S1135D000F49284600F079FDAB6923F40023AB6109
S1135D10AB6913F4002FFBD100232374A37C1BB1C4
S1135D2004F12C0000F036FF38BD00220549284656
S1135D3000F063FDE3E700BF2C870000540000205F
S1135D40160003001700030038B5154B53F8204024
S1135D50144B53F82050236923F40003236195F86E
S1135D602A00FCF77BFD00220F49204600F045FD88
S1135D70A36923F40023A361A36913F4002FFBD1C7
S1135D80AB7C43B9EB8D9BB2022B04BF0023EB85A4
S1135D9000232B7438BD05F12C0000F0FBFEF1E765
S1135DA02C870000540000201600030038B5194B5E
S1135DB053F82040184B53F8205001290DD0236A82
S1135DC01BB1626A012120469847A3688BB901225E
S1135DD01249284600F011FD38BD0123E385FFF781
S1135DE0B3FF236A002BF7D0626A03212046984749
S1135DF038BD216894F82A00FCF74CFDA16894F89A
S1135E002A00FCF77DFD0023A36094F82A00FCF728
S1135E1009FD38BD540000202C8700001600030043
S1135E2008B50E4B53F820200D4B53F8200013688F
S1135E30127D12B91B78037708BD012A06D11A789E
S1135E40597842EA012100F09AFC08BD1A78597881
S1135E5042EA012100F09EFC08BD00BF540000206E
S1135E602C870000022801D900BEFEE709B900BE54
S1135E70FEE738B5194B53F82030194C54F820403C
S1135E80587C40BB151C18BF012528460DB900BE1F
S1135E90FEE71D7D1DB182F0010000F0010008B98C
S1135EA000BEFEE7012058745960DA6002221A86A7
S1135EB0A36943F48023A361A36913F4802FFBD067
S1135EC00121204600F01AFD01220649204600F077
